{
  "contractName": "BaseWallet",
  "abi": [
    {
      "anonymous": false,
      "inputs": [
        {
          "indexed": true,
          "internalType": "address",
          "name": "module",
          "type": "address"
        },
        {
          "indexed": false,
          "internalType": "bool",
          "name": "value",
          "type": "bool"
        }
      ],
      "name": "AuthorisedModule",
      "type": "event"
    },
    {
      "anonymous": false,
      "inputs": [
        {
          "indexed": true,
          "internalType": "address",
          "name": "module",
          "type": "address"
        },
        {
          "indexed": true,
          "internalType": "bytes4",
          "name": "method",
          "type": "bytes4"
        }
      ],
      "name": "EnabledStaticCall",
      "type": "event"
    },
    {
      "anonymous": false,
      "inputs": [
        {
          "indexed": true,
          "internalType": "address",
          "name": "module",
          "type": "address"
        },
        {
          "indexed": true,
          "internalType": "address",
          "name": "target",
          "type": "address"
        },
        {
          "indexed": true,
          "internalType": "uint256",
          "name": "value",
          "type": "uint256"
        },
        {
          "indexed": false,
          "internalType": "bytes",
          "name": "data",
          "type": "bytes"
        }
      ],
      "name": "Invoked",
      "type": "event"
    },
    {
      "anonymous": false,
      "inputs": [
        {
          "indexed": false,
          "internalType": "address",
          "name": "owner",
          "type": "address"
        }
      ],
      "name": "OwnerChanged",
      "type": "event"
    },
    {
      "anonymous": false,
      "inputs": [
        {
          "indexed": true,
          "internalType": "uint256",
          "name": "value",
          "type": "uint256"
        },
        {
          "indexed": true,
          "internalType": "address",
          "name": "sender",
          "type": "address"
        },
        {
          "indexed": false,
          "internalType": "bytes",
          "name": "data",
          "type": "bytes"
        }
      ],
      "name": "Received",
      "type": "event"
    },
    {
      "stateMutability": "payable",
      "type": "fallback"
    },
    {
      "inputs": [
        {
          "internalType": "address",
          "name": "",
          "type": "address"
        }
      ],
      "name": "authorised",
      "outputs": [
        {
          "internalType": "bool",
          "name": "",
          "type": "bool"
        }
      ],
      "stateMutability": "view",
      "type": "function"
    },
    {
      "inputs": [
        {
          "internalType": "bytes4",
          "name": "",
          "type": "bytes4"
        }
      ],
      "name": "enabled",
      "outputs": [
        {
          "internalType": "address",
          "name": "",
          "type": "address"
        }
      ],
      "stateMutability": "view",
      "type": "function"
    },
    {
      "inputs": [],
      "name": "implementation",
      "outputs": [
        {
          "internalType": "address",
          "name": "",
          "type": "address"
        }
      ],
      "stateMutability": "view",
      "type": "function"
    },
    {
      "inputs": [],
      "name": "modules",
      "outputs": [
        {
          "internalType": "uint256",
          "name": "",
          "type": "uint256"
        }
      ],
      "stateMutability": "view",
      "type": "function"
    },
    {
      "inputs": [],
      "name": "owner",
      "outputs": [
        {
          "internalType": "address",
          "name": "",
          "type": "address"
        }
      ],
      "stateMutability": "view",
      "type": "function"
    },
    {
      "stateMutability": "payable",
      "type": "receive"
    },
    {
      "inputs": [
        {
          "internalType": "address",
          "name": "_owner",
          "type": "address"
        },
        {
          "internalType": "address[]",
          "name": "_modules",
          "type": "address[]"
        }
      ],
      "name": "init",
      "outputs": [],
      "stateMutability": "nonpayable",
      "type": "function"
    },
    {
      "inputs": [
        {
          "internalType": "address",
          "name": "_module",
          "type": "address"
        },
        {
          "internalType": "bool",
          "name": "_value",
          "type": "bool"
        }
      ],
      "name": "authoriseModule",
      "outputs": [],
      "stateMutability": "nonpayable",
      "type": "function"
    },
    {
      "inputs": [
        {
          "internalType": "address",
          "name": "_module",
          "type": "address"
        },
        {
          "internalType": "bytes4",
          "name": "_method",
          "type": "bytes4"
        }
      ],
      "name": "enableStaticCall",
      "outputs": [],
      "stateMutability": "nonpayable",
      "type": "function"
    },
    {
      "inputs": [
        {
          "internalType": "address",
          "name": "_newOwner",
          "type": "address"
        }
      ],
      "name": "setOwner",
      "outputs": [],
      "stateMutability": "nonpayable",
      "type": "function"
    },
    {
      "inputs": [
        {
          "internalType": "address",
          "name": "_target",
          "type": "address"
        },
        {
          "internalType": "uint256",
          "name": "_value",
          "type": "uint256"
        },
        {
          "internalType": "bytes",
          "name": "_data",
          "type": "bytes"
        }
      ],
      "name": "invoke",
      "outputs": [
        {
          "internalType": "bytes",
          "name": "_result",
          "type": "bytes"
        }
      ],
      "stateMutability": "nonpayable",
      "type": "function"
    }
  ],
  "bytecode": "0x608060405234801561001057600080fd5b50610e5d806100206000396000f3fe6080604052600436106100b55760003560e01c80635f54892b116100695780638f6f03321161004e5780638f6f03321461038d578063d6eb1bbf14610494578063f7e80e98146104db576100bc565b80635f54892b146103445780638da5cb5b14610378576100bc565b80631f17732d1161009a5780631f17732d1461024b5780633c5a3cea146102865780635c60da1b14610313576100bc565b806313af4035146101d357806313da30b214610208576100bc565b366100bc57005b600080356001600160e01b0319168152600360205260409020546001600160a01b03168061015557336001600160a01b0316347f606834f57405380c4fb88d1f4850326ad3885f014bab3b568dfbf7a041eef73860003660405180806020018281038252848482818152602001925080828437600083820152604051601f909101601f19169092018290039550909350505050a36101d0565b6001600160a01b03811660009081526002602052604090205460ff166101ac5760405162461bcd60e51b8152600401808060200182810382526030815260200180610dd16030913960400191505060405180910390fd5b3660008037600080366000845afa3d6000803e8080156101cb573d6000f35b3d6000fd5b50005b3480156101df57600080fd5b50610206600480360360208110156101f657600080fd5b50356001600160a01b0316610502565b005b34801561021457600080fd5b506102066004803603604081101561022b57600080fd5b5080356001600160a01b031690602001356001600160e01b03191661060c565b34801561025757600080fd5b506102066004803603604081101561026e57600080fd5b506001600160a01b038135169060200135151561071f565b34801561029257600080fd5b50610206600480360360408110156102a957600080fd5b6001600160a01b0382351691908101906040810160208201356401000000008111156102d457600080fd5b8201836020820111156102e657600080fd5b8035906020019184602083028401116401000000008311171561030857600080fd5b5090925090506108ec565b34801561031f57600080fd5b50610328610be1565b604080516001600160a01b039092168252519081900360200190f35b34801561035057600080fd5b506103286004803603602081101561036757600080fd5b50356001600160e01b031916610bf0565b34801561038457600080fd5b50610328610c0b565b34801561039957600080fd5b5061041f600480360360608110156103b057600080fd5b6001600160a01b03823516916020810135918101906060810160408201356401000000008111156103e057600080fd5b8201836020820111156103f257600080fd5b8035906020019184600183028401116401000000008311171561041457600080fd5b509092509050610c1a565b6040805160208082528351818301528351919283929083019185019080838360005b83811015610459578181015183820152602001610441565b50505050905090810190601f1680156104865780820380516001836020036101000a031916815260200191505b509250505060405180910390f35b3480156104a057600080fd5b506104c7600480360360208110156104b757600080fd5b50356001600160a01b0316610d62565b604080519115158252519081900360200190f35b3480156104e757600080fd5b506104f0610d77565b60408051918252519081900360200190f35b3360009081526002602052604090205460ff166105505760405162461bcd60e51b8152600401808060200182810382526027815260200180610e016027913960400191505060405180910390fd5b6001600160a01b0381166105ab576040805162461bcd60e51b815260206004820152601a60248201527f42573a20616464726573732063616e6e6f74206265206e756c6c000000000000604482015290519081900360640190fd5b600180546001600160a01b03831673ffffffffffffffffffffffffffffffffffffffff19909116811790915560408051918252517fa2ea9883a321a3e97b8266c2b078bfeec6d50c711ed71f874a90d500ae2eaf369181900360200190a150565b3360009081526002602052604090205460ff1661065a5760405162461bcd60e51b8152600401808060200182810382526027815260200180610e016027913960400191505060405180910390fd5b6001600160a01b03821660009081526002602052604090205460ff166106b15760405162461bcd60e51b8152600401808060200182810382526030815260200180610dd16030913960400191505060405180910390fd5b6001600160e01b03198116600081815260036020526040808220805473ffffffffffffffffffffffffffffffffffffffff19166001600160a01b038716908117909155905190917fd04b9de96b5ba21173fd97c509db394c9e07a59ffb10c26da7f6ce38a8102fcb91a35050565b3360009081526002602052604090205460ff1661076d5760405162461bcd60e51b8152600401808060200182810382526027815260200180610e016027913960400191505060405180910390fd5b6001600160a01b03821660009081526002602052604090205460ff161515811515146108e85760408051821515815290516001600160a01b038416917f8da3ff870ae294081392139550e167f1f31f277f22015ee22fbffdbd7758f4e1919081900360200190a2600181151514156108805760048054600190810182556001600160a01b038416600081815260026020526040808220805460ff191690941790935582517f19ab453c0000000000000000000000000000000000000000000000000000000081523094810194909452915190926319ab453c92602480830193919282900301818387803b15801561086357600080fd5b505af1158015610877573d6000803e3d6000fd5b505050506108e8565b6004805460001901908190556108c75760405162461bcd60e51b8152600401808060200182810382526028815260200180610d7e6028913960400191505060405180910390fd5b6001600160a01b0382166000908152600260205260409020805460ff191690555b5050565b6001546001600160a01b03161580156109055750600454155b610956576040805162461bcd60e51b815260206004820152601e60248201527f42573a2077616c6c657420616c726561647920696e697469616c697365640000604482015290519081900360640190fd5b806109925760405162461bcd60e51b815260040180806020018281038252602b815260200180610da6602b913960400191505060405180910390fd5b6001805473ffffffffffffffffffffffffffffffffffffffff19166001600160a01b038516179055600481905560005b81811015610b9457600260008484848181106109da57fe5b602090810292909201356001600160a01b03168352508101919091526040016000205460ff1615610a52576040805162461bcd60e51b815260206004820152601b60248201527f42573a206d6f64756c6520697320616c72656164792061646465640000000000604482015290519081900360640190fd5b600160026000858585818110610a6457fe5b905060200201356001600160a01b03166001600160a01b03166001600160a01b0316815260200190815260200160002060006101000a81548160ff021916908315150217905550828282818110610ab757fe5b905060200201356001600160a01b03166001600160a01b03166319ab453c306040518263ffffffff1660e01b815260040180826001600160a01b03168152602001915050600060405180830381600087803b158015610b1557600080fd5b505af1158015610b29573d6000803e3d6000fd5b50505050828282818110610b3957fe5b905060200201356001600160a01b03166001600160a01b03167f8da3ff870ae294081392139550e167f1f31f277f22015ee22fbffdbd7758f4e1600160405180821515815260200191505060405180910390a26001016109c2565b504715610bdc576040805160208082526000908201819052915147917f606834f57405380c4fb88d1f4850326ad3885f014bab3b568dfbf7a041eef738919081900360600190a35b505050565b6000546001600160a01b031681565b6003602052600090815260409020546001600160a01b031681565b6001546001600160a01b031681565b3360009081526002602052604090205460609060ff16610c6b5760405162461bcd60e51b8152600401808060200182810382526027815260200180610e016027913960400191505060405180910390fd5b6000856001600160a01b0316858585604051808383808284376040519201945060009350909150508083038185875af1925050503d8060008114610ccb576040519150601f19603f3d011682016040523d82523d6000602084013e610cd0565b606091505b509250905080610ce4573d6000803e3d6000fd5b84866001600160a01b0316336001600160a01b03167f7d2476ab50663f025cff0be85655bcf355f62768615c0c478f3cd5293f807365878760405180806020018281038252848482818152602001925080828437600083820152604051601f909101601f19169092018290039550909350505050a450949350505050565b60026020526000908152604090205460ff1681565b6004548156fe42573a2077616c6c6574206d7573742068617665206174206c65617374206f6e65206d6f64756c6542573a20636f6e737472756374696f6e207265717569726573206174206c656173742031206d6f64756c6542573a206d75737420626520616e20617574686f7269736564206d6f64756c6520666f72207374617469632063616c6c42573a206d73672e73656e646572206e6f7420616e20617574686f72697a6564206d6f64756c65a2646970667358221220fc2967831c26b409efcec8a81ffa21a8d3af4eed4828c03fc8af55ae68cae30b64736f6c634300060c0033",
  "immutableReferences": {},
  "source": "// Copyright (C) 2018  Argent Labs Ltd. <https://argent.xyz>\n\n// This program is free software: you can redistribute it and/or modify\n// it under the terms of the GNU General Public License as published by\n// the Free Software Foundation, either version 3 of the License, or\n// (at your option) any later version.\n\n// This program is distributed in the hope that it will be useful,\n// but WITHOUT ANY WARRANTY; without even the implied warranty of\n// MERCHANTABILITY or FITNESS FOR A PARTICULAR PURPOSE.  See the\n// GNU General Public License for more details.\n\n// You should have received a copy of the GNU General Public License\n// along with this program.  If not, see <http://www.gnu.org/licenses/>.\n\n// SPDX-License-Identifier: GPL-3.0-only\npragma solidity ^0.6.12;\n\nimport \"../modules/common/IModule.sol\";\nimport \"./IWallet.sol\";\n\n/**\n * @title BaseWallet\n * @notice Simple modular wallet that authorises modules to call its invoke() method.\n * @author Julien Niset - <julien@argent.xyz>\n */\ncontract BaseWallet is IWallet {\n\n    // The implementation of the proxy\n    address public implementation;\n    // The owner\n    address public override owner;\n    // The authorised modules\n    mapping (address => bool) public override authorised;\n    // The enabled static calls\n    mapping (bytes4 => address) public override enabled;\n    // The number of modules\n    uint public override modules;\n\n    event AuthorisedModule(address indexed module, bool value);\n    event EnabledStaticCall(address indexed module, bytes4 indexed method);\n    event Invoked(address indexed module, address indexed target, uint indexed value, bytes data);\n    event Received(uint indexed value, address indexed sender, bytes data);\n    event OwnerChanged(address owner);\n\n    /**\n     * @notice Throws if the sender is not an authorised module.\n     */\n    modifier moduleOnly {\n        require(authorised[msg.sender], \"BW: msg.sender not an authorized module\");\n        _;\n    }\n\n    /**\n     * @notice Inits the wallet by setting the owner and authorising a list of modules.\n     * @param _owner The owner.\n     * @param _modules The modules to authorise.\n     */\n    function init(address _owner, address[] calldata _modules) external {\n        require(owner == address(0) && modules == 0, \"BW: wallet already initialised\");\n        require(_modules.length > 0, \"BW: construction requires at least 1 module\");\n        owner = _owner;\n        modules = _modules.length;\n        for (uint256 i = 0; i < _modules.length; i++) {\n            require(authorised[_modules[i]] == false, \"BW: module is already added\");\n            authorised[_modules[i]] = true;\n            IModule(_modules[i]).init(address(this));\n            emit AuthorisedModule(_modules[i], true);\n        }\n        if (address(this).balance > 0) {\n            emit Received(address(this).balance, address(0), \"\");\n        }\n    }\n\n    /**\n     * @inheritdoc IWallet\n     */\n    function authoriseModule(address _module, bool _value) external override moduleOnly {\n        if (authorised[_module] != _value) {\n            emit AuthorisedModule(_module, _value);\n            if (_value == true) {\n                modules += 1;\n                authorised[_module] = true;\n                IModule(_module).init(address(this));\n            } else {\n                modules -= 1;\n                require(modules > 0, \"BW: wallet must have at least one module\");\n                delete authorised[_module];\n            }\n        }\n    }\n\n    /**\n    * @inheritdoc IWallet\n    */\n    function enableStaticCall(address _module, bytes4 _method) external override moduleOnly {\n        require(authorised[_module], \"BW: must be an authorised module for static call\");\n        enabled[_method] = _module;\n        emit EnabledStaticCall(_module, _method);\n    }\n\n    /**\n     * @inheritdoc IWallet\n     */\n    function setOwner(address _newOwner) external override moduleOnly {\n        require(_newOwner != address(0), \"BW: address cannot be null\");\n        owner = _newOwner;\n        emit OwnerChanged(_newOwner);\n    }\n\n    /**\n     * @notice Performs a generic transaction.\n     * @param _target The address for the transaction.\n     * @param _value The value of the transaction.\n     * @param _data The data of the transaction.\n     */\n    function invoke(address _target, uint _value, bytes calldata _data) external moduleOnly returns (bytes memory _result) {\n        bool success;\n        (success, _result) = _target.call{value: _value}(_data);\n        if (!success) {\n            // solhint-disable-next-line no-inline-assembly\n            assembly {\n                returndatacopy(0, 0, returndatasize())\n                revert(0, returndatasize())\n            }\n        }\n        emit Invoked(msg.sender, _target, _value, _data);\n    }\n\n    /**\n     * @notice This method delegates the static call to a target contract if the data corresponds\n     * to an enabled module, or logs the call otherwise.\n     */\n    fallback() external payable {\n        address module = enabled[msg.sig];\n        if (module == address(0)) {\n            emit Received(msg.value, msg.sender, msg.data);\n        } else {\n            require(authorised[module], \"BW: must be an authorised module for static call\");\n\n            // solhint-disable-next-line no-inline-assembly\n            assembly {\n                calldatacopy(0, 0, calldatasize())\n                let result := staticcall(gas(), module, 0, calldatasize(), 0, 0)\n                returndatacopy(0, 0, returndatasize())\n                switch result\n                case 0 {revert(0, returndatasize())}\n                default {return (0, returndatasize())}\n            }\n        }\n    }\n\n    receive() external payable {\n    }\n}",
  "sourcePath": "/Users/Elena/Source/argent-contracts/contracts-legacy/v2.4.0/contracts/wallet/BaseWallet.sol",
  "compiler": {
    "name": "solc",
    "version": "0.6.12+commit.27d51765.Emscripten.clang"
  },
  "schemaVersion": "3.3.0",
  "updatedAt": "2021-04-06T06:25:03.500Z",
  "devdoc": {
    "author": "Julien Niset - <julien@argent.xyz>",
    "kind": "dev",
    "methods": {
      "authoriseModule(address,bool)": {
        "params": {
          "_module": "The target module.",
          "_value": "Set to `true` to authorise the module."
        }
      },
      "enableStaticCall(address,bytes4)": {
        "params": {
          "_method": "The static method signature.",
          "_module": "The target module."
        }
      },
      "init(address,address[])": {
        "params": {
          "_modules": "The modules to authorise.",
          "_owner": "The owner."
        }
      },
      "invoke(address,uint256,bytes)": {
        "params": {
          "_data": "The data of the transaction.",
          "_target": "The address for the transaction.",
          "_value": "The value of the transaction."
        }
      },
      "setOwner(address)": {
        "params": {
          "_newOwner": "The new owner."
        }
      }
    },
    "stateVariables": {
      "authorised": {
        "params": {
          "_module": "The module address to check."
        },
        "return": "`true` if the module is authorised, otherwise `false`."
      },
      "enabled": {
        "params": {
          "_sig": "The signature of the static call."
        },
        "return": "the module doing the redirection"
      },
      "modules": {
        "return": "The number of authorised modules."
      },
      "owner": {
        "return": "The wallet owner address."
      }
    },
    "title": "BaseWallet",
    "version": 1
  },
  "userdoc": {
    "kind": "user",
    "methods": {
      "authoriseModule(address,bool)": {
        "notice": "Enables/Disables a module."
      },
      "authorised(address)": {
        "notice": "Checks if a module is authorised on the wallet."
      },
      "enableStaticCall(address,bytes4)": {
        "notice": "Enables a static method by specifying the target module to which the call must be delegated."
      },
      "enabled(bytes4)": {
        "notice": "Returns the module responsible for a static call redirection."
      },
      "init(address,address[])": {
        "notice": "Inits the wallet by setting the owner and authorising a list of modules."
      },
      "invoke(address,uint256,bytes)": {
        "notice": "Performs a generic transaction."
      },
      "modules()": {
        "notice": "Returns the number of authorised modules."
      },
      "owner()": {
        "notice": "Returns the wallet owner."
      },
      "setOwner(address)": {
        "notice": "Sets a new owner for the wallet."
      }
    },
    "notice": "Simple modular wallet that authorises modules to call its invoke() method.",
    "version": 1
  }
}