{
  "contractName": "BaseWallet",
  "abi": [
    {
      "constant": true,
      "inputs": [],
      "name": "implementation",
      "outputs": [
        {
          "name": "",
          "type": "address"
        }
      ],
      "payable": false,
      "stateMutability": "view",
      "type": "function"
    },
    {
      "constant": true,
      "inputs": [
        {
          "name": "",
          "type": "bytes4"
        }
      ],
      "name": "enabled",
      "outputs": [
        {
          "name": "",
          "type": "address"
        }
      ],
      "payable": false,
      "stateMutability": "view",
      "type": "function"
    },
    {
      "constant": true,
      "inputs": [],
      "name": "owner",
      "outputs": [
        {
          "name": "",
          "type": "address"
        }
      ],
      "payable": false,
      "stateMutability": "view",
      "type": "function"
    },
    {
      "constant": true,
      "inputs": [
        {
          "name": "",
          "type": "address"
        }
      ],
      "name": "authorised",
      "outputs": [
        {
          "name": "",
          "type": "bool"
        }
      ],
      "payable": false,
      "stateMutability": "view",
      "type": "function"
    },
    {
      "constant": true,
      "inputs": [],
      "name": "modules",
      "outputs": [
        {
          "name": "",
          "type": "uint256"
        }
      ],
      "payable": false,
      "stateMutability": "view",
      "type": "function"
    },
    {
      "payable": true,
      "stateMutability": "payable",
      "type": "fallback"
    },
    {
      "anonymous": false,
      "inputs": [
        {
          "indexed": true,
          "name": "module",
          "type": "address"
        },
        {
          "indexed": false,
          "name": "value",
          "type": "bool"
        }
      ],
      "name": "AuthorisedModule",
      "type": "event"
    },
    {
      "anonymous": false,
      "inputs": [
        {
          "indexed": true,
          "name": "module",
          "type": "address"
        },
        {
          "indexed": true,
          "name": "method",
          "type": "bytes4"
        }
      ],
      "name": "EnabledStaticCall",
      "type": "event"
    },
    {
      "anonymous": false,
      "inputs": [
        {
          "indexed": true,
          "name": "module",
          "type": "address"
        },
        {
          "indexed": true,
          "name": "target",
          "type": "address"
        },
        {
          "indexed": true,
          "name": "value",
          "type": "uint256"
        },
        {
          "indexed": false,
          "name": "data",
          "type": "bytes"
        }
      ],
      "name": "Invoked",
      "type": "event"
    },
    {
      "anonymous": false,
      "inputs": [
        {
          "indexed": true,
          "name": "value",
          "type": "uint256"
        },
        {
          "indexed": true,
          "name": "sender",
          "type": "address"
        },
        {
          "indexed": false,
          "name": "data",
          "type": "bytes"
        }
      ],
      "name": "Received",
      "type": "event"
    },
    {
      "anonymous": false,
      "inputs": [
        {
          "indexed": false,
          "name": "owner",
          "type": "address"
        }
      ],
      "name": "OwnerChanged",
      "type": "event"
    },
    {
      "constant": false,
      "inputs": [
        {
          "name": "_owner",
          "type": "address"
        },
        {
          "name": "_modules",
          "type": "address[]"
        }
      ],
      "name": "init",
      "outputs": [],
      "payable": false,
      "stateMutability": "nonpayable",
      "type": "function"
    },
    {
      "constant": false,
      "inputs": [
        {
          "name": "_module",
          "type": "address"
        },
        {
          "name": "_value",
          "type": "bool"
        }
      ],
      "name": "authoriseModule",
      "outputs": [],
      "payable": false,
      "stateMutability": "nonpayable",
      "type": "function"
    },
    {
      "constant": false,
      "inputs": [
        {
          "name": "_module",
          "type": "address"
        },
        {
          "name": "_method",
          "type": "bytes4"
        }
      ],
      "name": "enableStaticCall",
      "outputs": [],
      "payable": false,
      "stateMutability": "nonpayable",
      "type": "function"
    },
    {
      "constant": false,
      "inputs": [
        {
          "name": "_newOwner",
          "type": "address"
        }
      ],
      "name": "setOwner",
      "outputs": [],
      "payable": false,
      "stateMutability": "nonpayable",
      "type": "function"
    },
    {
      "constant": false,
      "inputs": [
        {
          "name": "_target",
          "type": "address"
        },
        {
          "name": "_value",
          "type": "uint256"
        },
        {
          "name": "_data",
          "type": "bytes"
        }
      ],
      "name": "invoke",
      "outputs": [],
      "payable": false,
      "stateMutability": "nonpayable",
      "type": "function"
    }
  ],
  "bytecode": "0x608060405234801561001057600080fd5b50610efc806100206000396000f3fe6080604052600436106100ce576000357c0100000000000000000000000000000000000000000000000000000000900480635f54892b116100865780638f6f03321161006b5780638f6f0332146103fb578063d6eb1bbf1461048d578063f7e80e98146104d4576100ce565b80635f54892b1461039a5780638da5cb5b146103e6576100ce565b80631f17732d116100b75780631f17732d146102a15780633c5a3cea146102dc5780635c60da1b14610369576100ce565b806313af40351461021357806313da30b214610246575b600036111561021157600080357fffffffff0000000000000000000000000000000000000000000000000000000016815260036020526040902054600160a060020a031680151561018a5733600160a060020a0316347f606834f57405380c4fb88d1f4850326ad3885f014bab3b568dfbf7a041eef73860003660405180806020018281038252848482818152602001925080828437600083820152604051601f909101601f19169092018290039550909350505050a361020f565b600160a060020a03811660009081526002602052604090205460ff1615156101eb57604051600080516020610e5a8339815191528152600401808060200182810382526030815260200180610e7a6030913960400191505060405180910390fd5b3660008037600080366000845afa3d6000803e80801561020a573d6000f35b3d6000fd5b505b005b34801561021f57600080fd5b506102116004803603602081101561023657600080fd5b5035600160a060020a03166104fb565b34801561025257600080fd5b506102116004803603604081101561026957600080fd5b508035600160a060020a031690602001357fffffffff0000000000000000000000000000000000000000000000000000000016610619565b3480156102ad57600080fd5b50610211600480360360408110156102c457600080fd5b50600160a060020a0381351690602001351515610758565b3480156102e857600080fd5b50610211600480360360408110156102ff57600080fd5b600160a060020a03823516919081019060408101602082013564010000000081111561032a57600080fd5b82018360208201111561033c57600080fd5b8035906020019184602083028401116401000000008311171561035e57600080fd5b50909250905061093b565b34801561037557600080fd5b5061037e610c19565b60408051600160a060020a039092168252519081900360200190f35b3480156103a657600080fd5b5061037e600480360360208110156103bd57600080fd5b50357fffffffff0000000000000000000000000000000000000000000000000000000016610c28565b3480156103f257600080fd5b5061037e610c43565b34801561040757600080fd5b506102116004803603606081101561041e57600080fd5b600160a060020a038235169160208101359181019060608101604082013564010000000081111561044e57600080fd5b82018360208201111561046057600080fd5b8035906020019184600183028401116401000000008311171561048257600080fd5b509092509050610c52565b34801561049957600080fd5b506104c0600480360360208110156104b057600080fd5b5035600160a060020a0316610deb565b604080519115158252519081900360200190f35b3480156104e057600080fd5b506104e9610e00565b60408051918252519081900360200190f35b3360009081526002602052604090205460ff16151561055357604051600080516020610e5a8339815191528152600401808060200182810382526027815260200180610eaa6027913960400191505060405180910390fd5b600160a060020a03811615156105b85760408051600080516020610e5a833981519152815260206004820152601a60248201527f42573a20616464726573732063616e6e6f74206265206e756c6c000000000000604482015290519081900360640190fd5b60018054600160a060020a03831673ffffffffffffffffffffffffffffffffffffffff19909116811790915560408051918252517fa2ea9883a321a3e97b8266c2b078bfeec6d50c711ed71f874a90d500ae2eaf369181900360200190a150565b3360009081526002602052604090205460ff16151561067157604051600080516020610e5a8339815191528152600401808060200182810382526027815260200180610eaa6027913960400191505060405180910390fd5b600160a060020a03821660009081526002602052604090205460ff1615156106d257604051600080516020610e5a8339815191528152600401808060200182810382526030815260200180610e7a6030913960400191505060405180910390fd5b7fffffffff000000000000000000000000000000000000000000000000000000008116600081815260036020526040808220805473ffffffffffffffffffffffffffffffffffffffff1916600160a060020a038716908117909155905190917fd04b9de96b5ba21173fd97c509db394c9e07a59ffb10c26da7f6ce38a8102fcb91a35050565b3360009081526002602052604090205460ff1615156107b057604051600080516020610e5a8339815191528152600401808060200182810382526027815260200180610eaa6027913960400191505060405180910390fd5b600160a060020a03821660009081526002602052604090205460ff161515811515146109375760018115151415610882576004805460019081018255600160a060020a038416600081815260026020526040808220805460ff191690941790935582517f19ab453c0000000000000000000000000000000000000000000000000000000081523094810194909452915190926319ab453c92602480830193919282900301818387803b15801561086557600080fd5b505af1158015610879573d6000803e3d6000fd5b505050506108f5565b6004805460001901908190556000106108d457604051600080516020610e5a8339815191528152600401808060200182810382526028815260200180610e076028913960400191505060405180910390fd5b600160a060020a0382166000908152600260205260409020805460ff191690555b6040805182151581529051600160a060020a038416917f8da3ff870ae294081392139550e167f1f31f277f22015ee22fbffdbd7758f4e1919081900360200190a25b5050565b600154600160a060020a03161580156109545750600454155b15156109af5760408051600080516020610e5a833981519152815260206004820152601e60248201527f42573a2077616c6c657420616c726561647920696e697469616c697365640000604482015290519081900360640190fd5b600081116109f657604051600080516020610e5a833981519152815260040180806020018281038252602b815260200180610e2f602b913960400191505060405180910390fd5b6001805473ffffffffffffffffffffffffffffffffffffffff1916600160a060020a038516179055600481905560005b81811015610c135760026000848484818110610a3e57fe5b60209081029290920135600160a060020a03168352508101919091526040016000205460ff1615610abe5760408051600080516020610e5a833981519152815260206004820152601b60248201527f42573a206d6f64756c6520697320616c72656164792061646465640000000000604482015290519081900360640190fd5b600160026000858585818110610ad057fe5b60209081029290920135600160a060020a0316835250810191909152604001600020805460ff1916911515919091179055828282818110610b0d57fe5b90506020020135600160a060020a0316600160a060020a03166319ab453c306040518263ffffffff167c01000000000000000000000000000000000000000000000000000000000281526004018082600160a060020a0316600160a060020a03168152602001915050600060405180830381600087803b158015610b9057600080fd5b505af1158015610ba4573d6000803e3d6000fd5b505050508282828181101515610bb657fe5b90506020020135600160a060020a0316600160a060020a03167f8da3ff870ae294081392139550e167f1f31f277f22015ee22fbffdbd7758f4e16001604051808215151515815260200191505060405180910390a2600101610a26565b50505050565b600054600160a060020a031681565b600360205260009081526040902054600160a060020a031681565b600154600160a060020a031681565b3360009081526002602052604090205460ff161515610caa57604051600080516020610e5a8339815191528152600401808060200182810382526027815260200180610eaa6027913960400191505060405180910390fd5b600084600160a060020a0316848484604051808383808284376040519201945060009350909150508083038185875af1925050503d8060008114610d0a576040519150601f19603f3d011682016040523d82523d6000602084013e610d0f565b606091505b50509050801515610d6f5760408051600080516020610e5a833981519152815260206004820152601960248201527f42573a2063616c6c20746f20746172676574206661696c656400000000000000604482015290519081900360640190fd5b8385600160a060020a031633600160a060020a03167f7d2476ab50663f025cff0be85655bcf355f62768615c0c478f3cd5293f807365868660405180806020018281038252848482818152602001925080828437600083820152604051601f909101601f19169092018290039550909350505050a45050505050565b60026020526000908152604090205460ff1681565b6004548156fe42573a2077616c6c6574206d7573742068617665206174206c65617374206f6e65206d6f64756c6542573a20636f6e737472756374696f6e207265717569726573206174206c656173742031206d6f64756c6508c379a00000000000000000000000000000000000000000000000000000000042573a206d75737420626520616e20617574686f7269736564206d6f64756c6520666f72207374617469632063616c6c42573a206d73672e73656e646572206e6f7420616e20617574686f72697a6564206d6f64756c65a165627a7a72305820c686c99cce30daf1bd33402618601ecdb406f7cb5d8a2249399d45df643f2be00029",
  "source": "pragma solidity ^0.5.4;\n\nimport \"./Module.sol\";\n\n/**\n * @title BaseWallet\n * @dev Simple modular wallet that authorises modules to call its invoke() method.\n * Based on https://gist.github.com/Arachnid/a619d31f6d32757a4328a428286da186 by\n * @author Julien Niset - <julien@argent.im>\n */\ncontract BaseWallet {\n\n    // The implementation of the proxy\n    address public implementation;\n    // The owner of the wallet\n    address public owner;\n    // The authorised modules\n    mapping (address => bool) public authorised;\n    // The enabled static calls\n    mapping (bytes4 => address) public enabled;\n    // The number of modules\n    uint public modules;\n    \n    event AuthorisedModule(address indexed module, bool value);\n    event EnabledStaticCall(address indexed module, bytes4 indexed method);\n    event Invoked(address indexed module, address indexed target, uint indexed value, bytes data);\n    event Received(uint indexed value, address indexed sender, bytes data);\n    event OwnerChanged(address owner);\n    \n    /**\n     * @dev Throws if the sender is not an authorised module.\n     */\n    modifier moduleOnly {\n        require(authorised[msg.sender], \"BW: msg.sender not an authorized module\");\n        _;\n    }\n\n    /**\n     * @dev Inits the wallet by setting the owner and authorising a list of modules.\n     * @param _owner The owner.\n     * @param _modules The modules to authorise.\n     */\n    function init(address _owner, address[] calldata _modules) external {\n        require(owner == address(0) && modules == 0, \"BW: wallet already initialised\");\n        require(_modules.length > 0, \"BW: construction requires at least 1 module\");\n        owner = _owner;\n        modules = _modules.length;\n        for(uint256 i = 0; i < _modules.length; i++) {\n            require(authorised[_modules[i]] == false, \"BW: module is already added\");\n            authorised[_modules[i]] = true;\n            Module(_modules[i]).init(this);\n            emit AuthorisedModule(_modules[i], true);\n        }\n    }\n    \n    /**\n     * @dev Enables/Disables a module.\n     * @param _module The target module.\n     * @param _value Set to true to authorise the module.\n     */\n    function authoriseModule(address _module, bool _value) external moduleOnly {\n        if (authorised[_module] != _value) {\n            if(_value == true) {\n                modules += 1;\n                authorised[_module] = true;\n                Module(_module).init(this);\n            }\n            else {\n                modules -= 1;\n                require(modules > 0, \"BW: wallet must have at least one module\");\n                delete authorised[_module];\n            }\n            emit AuthorisedModule(_module, _value);\n        }\n    }\n\n    /**\n    * @dev Enables a static method by specifying the target module to which the call\n    * must be delegated.\n    * @param _module The target module.\n    * @param _method The static method signature.\n    */\n    function enableStaticCall(address _module, bytes4 _method) external moduleOnly {\n        require(authorised[_module], \"BW: must be an authorised module for static call\");\n        enabled[_method] = _module;\n        emit EnabledStaticCall(_module, _method);\n    }\n\n    /**\n     * @dev Sets a new owner for the wallet.\n     * @param _newOwner The new owner.\n     */\n    function setOwner(address _newOwner) external moduleOnly {\n        require(_newOwner != address(0), \"BW: address cannot be null\");\n        owner = _newOwner;\n        emit OwnerChanged(_newOwner);\n    }\n    \n    /**\n     * @dev Performs a generic transaction.\n     * @param _target The address for the transaction.\n     * @param _value The value of the transaction.\n     * @param _data The data of the transaction.\n     */\n    function invoke(address _target, uint _value, bytes calldata _data) external moduleOnly {\n        // solium-disable-next-line security/no-call-value\n        (bool success, ) = _target.call.value(_value)(_data);\n        require(success, \"BW: call to target failed\");\n        emit Invoked(msg.sender, _target, _value, _data);\n    }\n\n    /**\n     * @dev This method makes it possible for the wallet to comply to interfaces expecting the wallet to\n     * implement specific static methods. It delegates the static call to a target contract if the data corresponds\n     * to an enabled method, or logs the call otherwise.\n     */\n    function() external payable {\n        if(msg.data.length > 0) {\n            address module = enabled[msg.sig];\n            if(module == address(0)) {\n                emit Received(msg.value, msg.sender, msg.data);\n            }\n            else {\n                require(authorised[module], \"BW: must be an authorised module for static call\");\n                // solium-disable-next-line security/no-inline-assembly\n                assembly {\n                    calldatacopy(0, 0, calldatasize())\n                    let result := staticcall(gas, module, 0, calldatasize(), 0, 0)\n                    returndatacopy(0, 0, returndatasize())\n                    switch result\n                    case 0 {revert(0, returndatasize())}\n                    default {return (0, returndatasize())}\n                }\n            }\n        }\n    }\n}",
  "sourcePath": "/Users/Elena/Source/argent-contracts/contracts-legacy/v1.3.0/BaseWallet.sol",
  "compiler": {
    "name": "solc",
    "version": "0.5.4+commit.9549d8ff.Emscripten.clang"
  },
  "schemaVersion": "3.3.0",
  "updatedAt": "2021-04-06T06:24:29.204Z",
  "devdoc": {
    "author": "Julien Niset - <julien@argent.im>",
    "details": "Simple modular wallet that authorises modules to call its invoke() method. Based on https://gist.github.com/Arachnid/a619d31f6d32757a4328a428286da186 by",
    "methods": {
      "authoriseModule(address,bool)": {
        "details": "Enables/Disables a module.",
        "params": {
          "_module": "The target module.",
          "_value": "Set to true to authorise the module."
        }
      },
      "enableStaticCall(address,bytes4)": {
        "details": "Enables a static method by specifying the target module to which the call must be delegated.",
        "params": {
          "_method": "The static method signature.",
          "_module": "The target module."
        }
      },
      "init(address,address[])": {
        "details": "Inits the wallet by setting the owner and authorising a list of modules.",
        "params": {
          "_modules": "The modules to authorise.",
          "_owner": "The owner."
        }
      },
      "invoke(address,uint256,bytes)": {
        "details": "Performs a generic transaction.",
        "params": {
          "_data": "The data of the transaction.",
          "_target": "The address for the transaction.",
          "_value": "The value of the transaction."
        }
      },
      "setOwner(address)": {
        "details": "Sets a new owner for the wallet.",
        "params": {
          "_newOwner": "The new owner."
        }
      }
    },
    "title": "BaseWallet"
  },
  "userdoc": {
    "methods": {}
  }
}